:020000040000FA
:10000000700800204D01000031060000330600009A
:1000100000000000000000000000000000000000E0
:100020000000000000000000000000003506000095
:100030000000000000000000370600003906000044
:100040003B0600003D0600003F06000041060000A0
:10005000430600005F0100005F010000450600004C
:1000600047060000490600004B0600004D06000050
:100070004F06000051060000530600005506000020
:1000800057060000590600005B0600005D060000F0
:100090005F060000610600005F01000063060000CB
:1000A000650600006706000000F002F800F03EF868
:1000B0000CA030C8083824182D18A246671EAB467D
:1000C00054465D46AC4201D100F030F87E460F3E0A
:1000D0000FCCB6460126334200D0FB1AA246AB46EF
:1000E000334318474C0700006C070000103A02D356
:1000F00078C878C1FAD8520701D330C830C101D5C9
:1001000004680C60704700000023002400250026CE
:10011000103A01D378C1FBD8520700D330C100D5C3
:100120000B6070471FB51FBD10B510BD00F04CFB34
:100130001146FFF7F7FF00F047FA00F064FB03B445
:10014000FFF7F2FF03BC00F06BFB0000074880479D
:1001500007480047FEE7FEE7FEE7FEE7FEE7FEE7AB
:1001600004480549054A064B704700005705000042
:10017000A90000007000002070080020700400201A
:100180007004002070B51024002101604160DE4A37
:10019000426142628162426321225206904202D150
:1001A000DA4BDB4A07E04322120690420CD1D74BD0
:1001B000D74A403340320020602685005E515151BD
:1001C000401CA042F9D370BD11229206904204D186
:1001D000CE4BCF4A80338032EDE7CC4BCC4AC03394
:1001E000C0320524E7E7F0B521220023102552068E
:1001F000904201D1C54A10E043221206904202D13A
:10020000C24A403209E011229206904202D1BF4A0E
:10021000803202E0BD4AC0320525012426460F681F
:100220009E403740B74243D10F79012F0DD0466130
:100230004E79B6070DD59C001659B608B600165172
:10024000165902273E4316510BE0076937430761F1
:10025000EEE79E009759BF08BF0097519759274373
:1002600097514C79640704D59C00165904273E43E6
:1002700003E09C0016590427BE4316514C79A4068E
:1002800004D59C00165920273E4303E09C001659D4
:100290002027BE4316514C79640604D59C0016599C
:1002A00040273E4303E09C0016594027BE431651A9
:1002B0005B1CAB42B1D3F0BD9349016000210171D9
:1002C0006221417170470246126800200A4200D044
:1002D00001207047006880B27047024652680020D3
:1002E0000A4200D001207047406880B270470A0679
:1002F000920D012312189B02D21811600A0A920073
:1003000010185A0080180160704710B50B069B0D3D
:100310000124CA431B18A4021B191A60090A890088
:10032000081861004018026010BD30B50B069B0D27
:100330001C1801239B02E41823680D0AAD002D1838
:100340000120C0022D182868012A04D08B432360A5
:100350008843286030BD0B4323600843F9E74160C0
:10036000704742684A4042607047836A0B43836229
:10037000012A03D0426A0A4342627047026A0A4372
:1003800002627047604A8262012901D0426270476E
:1003900002627047012A03D0426B0A4342637047EE
:1003A000026B0A4302637047574A012901D0426336
:1003B0007047026370475449816370470246926BED
:1003C00000200A4200D001207047F0B50126504DB0
:1003D000002334469C400C4210D0002812D0012843
:1003E00013D0022814D04A4C9F0080343C19276C4B
:1003F000BF08BF002764276C174327645B1C102BC2
:10040000E7DBF0BD9C00641906E09C006419EEE790
:100410003F4C9F0080343C192768BF08BF0027600D
:10042000276817432760E9E77CB504461E460D465A
:100430006846FFF741FF684600950271694620460D
:10044000FFF7D1FE21204006844201D1002004E0C4
:1004500043200006844205D1012032462946FFF799
:10046000B4FF7CBD11208006844201D10220F4E754
:100470000320F2E77CB5044616460D466846FFF7B2
:100480001BFF00206946009508712046FFF7ABFE70
:10049000206A28432062A06A2843A0623246294687
:1004A0002046FFF777FF21204006844206D1002036
:1004B00001222946FFF789FF072009E043200006B3
:1004C000844208D1012002462946FFF77EFF08201A
:1004D00000F013F87CBD11208006844206D1022072
:1004E00001222946FFF771FF0920F1E703200122CD
:1004F0002946FFF76AFF0A20EAE7C106C90E012074
:100500008840044908607047FFFF00000030004148
:100510000020004100E100E010B520480021016208
:1005200041698907CA0F012191404269D207D20F60
:100530009140CAB2416940698904890E51438002E1
:10054000174A800E504300F08FF81649486010BDDE
:1005500014480068704710B51348816B134A116145
:10056000C16B0E4841600021016241698907CA0FD1
:10057000012191404269D207D20F9140CAB241692C
:1005800040698904890E51438002054A800E504318
:1005900000F06AF80349086010BD00000010004137
:1005A00000127A000000002080FD030000120041CC
:1005B00001B581B01C49019848430090002802D041
:1005C00000BF401EF9E70CBDFFF7C5FF1748062125
:1005D000016001210171212501466D062846FFF7C2
:1005E00002FE012206210020FFF7EFFE0621284629
:1005F000FFF77DFEFF24F5342046FFF7D9FF0621E3
:100600002846FFF774FE2046FFF7D2FF00220221A2
:100610002846FFF78AFE2046FFF7CAFF0022042182
:100620002846FFF782FEE7E7C40900000800002023
:100630007047704770477047704770477047704702
:1006400070477047704770477047704770477047F2
:1006500070477047704770477047704770477047E2
:100660007047704770477047002203098B422CD3B4
:10067000030A8B4211D300239C464EE003460B43F2
:100680003CD4002243088B4231D303098B421CD354
:10069000030A8B4201D394463FE0C3098B4201D346
:1006A000CB01C01A524183098B4201D38B01C01A7E
:1006B000524143098B4201D34B01C01A52410309F5
:1006C0008B4201D30B01C01A5241C3088B4201D3A4
:1006D000CB00C01A524183088B4201D38B00C01A51
:1006E000524143088B4201D34B00C01A5241411A78
:1006F00000D201465241104670475DE0CA0F00D05B
:100700004942031000D34042534000229C46030953
:100710008B422DD3030A8B4212D3FC22890112BAD9
:10072000030A8B420CD3890192118B4208D38901B1
:1007300092118B4204D389013AD0921100E08909C9
:10074000C3098B4201D3CB01C01A524183098B42AA
:1007500001D38B01C01A524143098B4201D34B0193
:10076000C01A524103098B4201D30B01C01A5241F6
:10077000C3088B4201D3CB00C01A524183088B427D
:1007800001D38B00C01A5241D9D243088B4201D306
:100790004B00C01A5241411A00D2014663465241F1
:1007A0005B10104601D34042002B00D549427047F0
:1007B00063465B1000D3404201B50020C046C046EE
:1007C00002BD704770477047754600F025F8AE4689
:1007D000050069465346C008C000854618B020B5DC
:1007E000FFF7BEFC60BC00274908B6460026C0C51E
:1007F000C0C5C0C5C0C5C0C5C0C5C0C5C0C5403DD9
:1008000049008D46704710B50446C046C046204694
:10081000FFF795FC10BD0000004870471000002055
:1008200001491820ABBEFEE7260002007047000019
:10083000500800000000002010000000EC00000044
:10084000600800001000002060080000080100009F
:100850000000000000000000000000000000000098
:04000005000000A94E
:00000001FF
