:020000040000FA
:10000000F80800205D010000290B00002B0B000008
:1000100000000000000000000000000000000000E0
:100020000000000000000000000000002D0B000098
:1000300000000000000000002F0B0000310B00004A
:10004000330B0000350B0000370B0000390B0000AC
:100050003B0B00006F0100006F0100003D0B000032
:100060003F0B0000410B0000430B0000450B00005C
:10007000470B0000490B00004B0B00004D0B00002C
:100080004F0B0000510B0000530B0000550B0000FC
:10009000570B0000590B00006F0100005B0B0000C4
:1000A0005D0B00005F0B000000F002F800F046F866
:1000B0000CA030C8083824182D18A246671EAB467D
:1000C00054465D46AC4201D100F038F87E460F3E02
:1000D0000FCCB6460126334200D0FB1AA246AB46EF
:1000E000334318479C170000BC170000103A02D396
:1000F00078C878C1FAD8520701D330C830C101D5C9
:1001000004680C60704700000023002400250026CE
:10011000103A01D378C1FBD8520700D330C100D5C3
:100120000B60704710B5782902D100F06DFD10BD4D
:10013000002010BD1FB51FBD10B510BD01F074FA31
:100140001146FFF7F7FF00F0F0FB01F08CFA03B463
:10015000FFF7F2FF03BC00F01CFD000007488047DA
:1001600007480047FEE7FEE7FEE7FEE7FEE7FEE79B
:1001700004480549054A064B70470000AF080000D7
:10018000A9000000F8000020F8080020F804002072
:10019000F804002070B51024002101604160DE4A9F
:1001A000426142628162426321225206904202D140
:1001B000DA4BDB4A07E04322120690420CD1D74BC0
:1001C000D74A403340320020602685005E515151AD
:1001D000401CA042F9D370BD11229206904204D176
:1001E000CE4BCF4A80338032EDE7CC4BCC4AC03384
:1001F000C0320524E7E7F0B521220023102552067E
:10020000904201D1C54A10E043221206904202D129
:10021000C24A403209E011229206904202D1BF4AFE
:10022000803202E0BD4AC0320525012426460F680F
:100230009E403740B74243D10F79012F0DD0466120
:100240004E79B6070DD59C001659B608B600165162
:10025000165902273E4316510BE0076937430761E1
:10026000EEE79E009759BF08BF0097519759274363
:1002700097514C79640704D59C00165904273E43D6
:1002800003E09C0016590427BE4316514C79A4067E
:1002900004D59C00165920273E4303E09C001659C4
:1002A0002027BE4316514C79640604D59C0016598C
:1002B00040273E4303E09C0016594027BE43165199
:1002C0005B1CAB42B1D3F0BD9349016000210171C9
:1002D0006221417170470246126800200A4200D034
:1002E00001207047006880B27047024652680020C3
:1002F0000A4200D001207047406880B270470A0669
:10030000920D012312189B02D21811600A0A920062
:1003100010185A0080180160704710B50B069B0D2D
:100320000124CA431B18A4021B191A60090A890078
:10033000081861004018026010BD30B50B069B0D17
:100340001C1801239B02E41823680D0AAD002D1828
:100350000120C0022D182868012A04D08B43236095
:100360008843286030BD0B4323600843F9E74160B0
:10037000704742684A4042607047836A0B43836219
:10038000012A03D0426A0A4342627047026A0A4362
:1003900002627047604A8262012901D0426270475E
:1003A00002627047012A03D0426B0A4342637047DE
:1003B000026B0A4302637047574A012901D0426326
:1003C0007047026370475449816370470246926BDD
:1003D00000200A4200D001207047F0B50126504DA0
:1003E000002334469C400C4210D0002812D0012833
:1003F00013D0022814D04A4C9F0080343C19276C3B
:10040000BF08BF002764276C174327645B1C102BB1
:10041000E7DBF0BD9C00641906E09C006419EEE780
:100420003F4C9F0080343C192768BF08BF002760FD
:10043000276817432760E9E77CB504461E460D464A
:100440006846FFF741FF68460095027169462046FD
:10045000FFF7D1FE21204006844201D1002004E0B4
:1004600043200006844205D1012032462946FFF789
:10047000B4FF7CBD11208006844201D10220F4E744
:100480000320F2E77CB5044616460D466846FFF7A2
:100490001BFF00206946009508712046FFF7ABFE60
:1004A000206A28432062A06A2843A0623246294677
:1004B0002046FFF777FF21204006844206D1002026
:1004C00001222946FFF789FF072009E043200006A3
:1004D000844208D1012002462946FFF77EFF08200A
:1004E00000F013F87CBD11208006844206D1022062
:1004F00001222946FFF771FF0920F1E703200122BD
:100500002946FFF76AFF0A20EAE7C106C90E012063
:100510008840044908607047FFFF00000030004138
:100520000020004100E100E00021016041608160A5
:100530000161416141627047002101604160816059
:10054000C16007224161026181610222C26142628F
:10055000016204218162704730B5036814C94D6897
:1005600022430C682C4322438C6822431A430260C6
:1005700043680C69CA68CD6922434C692C43224305
:100580008C6922431A434260096A016130BD002A26
:10059000426901D00A4300E08A4342617047002A61
:1005A000426A01D00A4300E08A4342627047816098
:1005B0007047806880B270470029416802D00122EC
:1005C000114300E00021416070470029416802D0DA
:1005D0000422114301E00E4A114041607047026855
:1005E00012091201026002680A4302607047024663
:1005F000D26800200A4200D0012070470246D2692A
:1006000000200A4200D001207047016270470000BC
:10061000FBFF0000E121490201606021818000218F
:10062000C18003220181120242818181704770479B
:10063000F8B50446006B0D4640084000206386482C
:10064000022101614069012631468140834800F062
:10065000A3FB00902868000100F03CFF07460098CB
:1006600000F038FF394600F041FE074600F0EEFE8C
:10067000009000F02FFF394601F050F8062100F0FD
:100680002DFF00F009FE0022754B00F0B1FD00F0D7
:10069000DFFD014600986062A162E06AEE218843B6
:1006A000A988EA8811432A8902431143E162216B38
:1006B0006C48AA8901406889104308432063206B75
:1006C000304320630020F8BD10B5C36A10242343D3
:1006D000C3624907890E5207520F1143416310BD8F
:1006E000C16A10229143C16270470160704700687F
:1006F00080B27047C16A01221143C162704702464D
:10070000526800200A4200D00120704741607047C3
:100710000246926900200A4200D0012070477047CB
:10072000002A03D0826B0A4382637047426C0A43FB
:10073000426470470246126C00200A4200D0012039
:100740007047426C0A4342647047826C0A43826479
:100750007047704710B5444A0446116B3F48022960
:1007600004D0116B032901D000F09EF8214600F05F
:1007700013FB3E49086110BD10B5FFF7EBFF3B4985
:10078000886803228008800010438860002010BD24
:1007900036494A68D207FCD1086070473348006880
:1007A00080B27047314A0146526800200A4200D0A8
:1007B000012070472D4A0029916801D0014300E0D3
:1007C000814391607047294A0029916801D0014313
:1007D00000E0814391607047244A0146D2680020BE
:1007E0000A4200D0012070472049CA680243CA600B
:1007F0007047016082691207FCD40846704730B523
:100800000B4605461C78002C03D021462846FFF7EE
:10081000F0FF5B1C002CF5D130BD8169C906FCD40A
:100820000068C0B2704700B50346FFF7B1FF184635
:1008300000BD10B503461C78002C02D02046FFF7FF
:10084000A7FF5B1C002CF6D110BD08484168890742
:10085000FCD50068C0B270474011004100127A0018
:100860000000E03FFE3CFFFF001000410060004040
:1008700010B520480021016241698907CA0F012192
:1008800091404269D207D20F9140CAB24169406992
:100890008904890E51438002174A800E504300F0AC
:1008A0007BFA1649486010BD14480068704710B5BF
:1008B0001348816B134A1161C16B0E4841600021DE
:1008C000016241698907CA0F012191404269D2073B
:1008D000D20F9140CAB2416940698904890E5143DF
:1008E0008002054A800E504300F056FA0349086022
:1008F00010BD00000010004100127A00000000202E
:1009000080FD03000012004110B507E003780C7869
:10091000A34201D0002010BD401C491C1346521EAA
:1009200092B2002BF2D1012010BDF8B5FFF7BFFF46
:100930005D48FFF76FFE5C495C48FFF779FE5A4857
:100940001030FFF7F9FD58490020103148600F249E
:10095000084604615648FFF7FFFD53483C30FFF757
:10096000EBFD514804213C3004618161014651484E
:10097000FFF7F2FD504CFF250135012725601120BE
:10098000277121468006FFF736FC01222946022006
:10099000FFF723FD6E002660112027712146800697
:1009A000FFF729FC012231460220FFF716FD112036
:1009B00029468006FFF7A3FC112031468006FFF789
:1009C0009EFC3EA000F0EAF842A13848FFF717FF6E
:1009D0001C3C0020364E25460C356060295C3046B4
:1009E000FFF7E5FD10213046FFF701FE0028F9D1A1
:1009F0006068401C60600828F0D33CA000F0CEF88E
:100A00000026A95D3CA000F0C9F8761C082EF8DB92
:100A10003BA000F0C3F8284E264D083E06E02846CD
:100A2000FFF7C7FDA1687054491CA1600421284646
:100A3000FFF7DDFD0028F2D132A11C48FFF7DFFEF1
:100A400034A000F0ABF80025715D2BA000F0A6F8F3
:100A50006D1C082DF8DB32A000F0A0F81649082222
:100A60000839881AFFF750FF20702078012803D03A
:100A70002078002803D008E00121490201E0FF218D
:100A8000013111208006FFF748FC0020F8BD01B5B8
:100A900081B02449019848430090002802D000BF4B
:100AA000401EF9E70CBD00003000002000D00040DF
:100AB00000A0004000B000402400002055415254E6
:100AC0002031207373702054657374282332290DEC
:100AD0000A00000055415254203120737370205495
:100AE000657374282331290D0A00000054582064CE
:100AF000617461203A20000020307825303278007F
:100B00000D0A000052582064617461203A200D0AD9
:100B10000000000052582064617461203A200000F7
:100B20000D0A2000C40900007047704770477047E5
:100B300070477047704770477047704770477047FD
:100B400070477047704770477047704770477047ED
:100B500070477047704770477047704770477047DD
:100B600010B5C1B20B48FFF744FE10BD10B5094CDB
:100B70002046FFF752FE01462046FFF73AFE10BD21
:100B80000020C043704710B5C1B20248FFF731FEE4
:100B900010BDFEE700D00040704700000FB40549CB
:100BA00010B503AA029800F013FD10BC08BC04B0F5
:100BB000184700002C00002070B5044685690068C5
:100BC000C10601D5302600E02026C00707D070BD41
:100BD00062683046A1689047206A401C20626D1E02
:100BE000F6D570BD70B5044685690078C00707D199
:100BF00070BD6268A16820209047206A401C206276
:100C00006D1EF6D570BD000070B504460D46214638
:100C10001068C046C0462188090502D50F4A7A44AB
:100C200002E00E4A7A440E3223460021243305E0C6
:100C300006070009360F965D5E54491C0028F7D15F
:100C400020780023000705D5702D03D0002901D09E
:100C500002231132204600F063FC70BDE20B00005D
:100C6000F3B50446002081B020622046E168884741
:100C700000287DD0252802D06268A16883E0454F16
:100C800000257F442046E16888472028064608DB87
:100C9000312E06D2B81920380078002801D005433B
:100CA000F0E7A80701D5042085430020E06107464E
:100CB000A0612A2E0AD0304600F0E2FC002827D09E
:100CC000B8000019303E0090866119E00298BA0021
:100CD000121902C8916102902046E1688847012FED
:100CE000064617D1E06900281FDA202085431CE062
:100CF00000980A218069484300998019303888613A
:100D00002046E1688847064600F0BAFC0028EFD18B
:100D1000012F0AD02E2E08D12046E16888470646CA
:100D2000202005437F1C022FC3DBA069002803DAC3
:100D30004042A06101200543E80701D0102085430F
:100D4000002E24D030464138192803D80120C00293
:100D500005432036204625603146029A1546FFF7A6
:100D6000E1F900280CD0012807D0ED1DE80800E0CB
:100D70000DE0C0000830029077E72D1D029574E762
:100D800062683046A1689047206A401C6CE7206A80
:100D9000FEBD0000A60B0000002203098B422CD3ED
:100DA000030A8B4211D300239C464EE003460B43BB
:100DB0003CD4002243088B4231D303098B421CD31D
:100DC000030A8B4201D394463FE0C3098B4201D30F
:100DD000CB01C01A524183098B4201D38B01C01A47
:100DE000524143098B4201D34B01C01A52410309BE
:100DF0008B4201D30B01C01A5241C3088B4201D36D
:100E0000CB00C01A524183088B4201D38B00C01A19
:100E1000524143088B4201D34B00C01A5241411A40
:100E200000D201465241104670475DE0CA0F00D023
:100E30004942031000D34042534000229C4603091C
:100E40008B422DD3030A8B4212D3FC22890112BAA2
:100E5000030A8B420CD3890192118B4208D389017A
:100E600092118B4204D389013AD0921100E0890992
:100E7000C3098B4201D3CB01C01A524183098B4273
:100E800001D38B01C01A524143098B4201D34B015C
:100E9000C01A524103098B4201D30B01C01A5241BF
:100EA000C3088B4201D3CB00C01A524183088B4246
:100EB00001D38B00C01A5241D9D243088B4201D3CF
:100EC0004B00C01A5241411A00D2014663465241BA
:100ED0005B10104601D34042002B00D549427047B9
:100EE00063465B1000D3404201B50020C046C046B7
:100EF00002BD704770477047F0B50C46871A9C4199
:100F00000D46861A9D4103D2C01BA141D2196341EF
:100F10000D0D1F0DC94EEC1BAE435CD07F057F0D40
:100F20000026002F51D02D05AC46A943DD02012338
:100F3000ED0A1B051D4320231B1B24D41746E74045
:100F4000381871412F46E740CC199D40281831468A
:100F500061410C0D27D161449A4013D50023401CF8
:100F6000594152000ED14008400001224B00520569
:100F7000D34207D305204007C14201D5B04900E064
:100F8000B0493046F0BD6B00002A00D001229A180B
:100F90001F23203C1B1B01D5002302E0E54028183D
:100FA00071410C0DD7D0012424050919C407CD07C0
:100FB00040084908E40F28436144002CD5D00024A0
:100FC000401C61419A40D0D1CDE76A05520DD9D17C
:100FD000C90FC907D5E79C4D4E00002801D0012458
:100FE00000E0002434195F00002A01D0012600E04F
:100FF0000026BE19954FAC420CD8AE420AD8B44276
:1010000006D001256D05EC42BCD010461946F0BD56
:101010009942FCD000203946F0BDF0B51FB40C4613
:101020000F46811A9F412546861A9D4106D2012509
:10103000ED076F40401ABC4152187B41210D1E0D37
:101040008D1BAC467D4D8D437ED075056D0D7CD0DE
:101050000D05AE46AC431B031B0B794D52429D411F
:10106000202366469B1B14D31746F74038180026EA
:101070000090744160462F460741E41900989D4056
:101080002818664116D4714671189A4025D5012357
:1010900020E093182A466A415200002B00D0521CCF
:1010A0001E23203E9B1B002B61DD3541EE172818C7
:1010B0006641E8D5001876415B1C9A4000D3401C7D
:1010C0004B05F3181524E34010D3002B52D0714682
:1010D0007118D30FC01802D3491C05B0F0BD01230D
:1010E000DB079A42F9D140084000F6E70122520599
:1010F000B21801D1002853D00123CC0ADB02994356
:10110000891E002A08D1020C03D0020C00041039F9
:1011100002E00246002020390023550B05D11202BF
:101120000823550B01D152010D23550C01D1120199
:101130001B1DD50C01D192009B1C150D01D1520035
:101140005B1C2025EE1A01E02CE022E00546F5406C
:1011500015439840CA1AE10769181305C918002AEF
:10116000BBDA032040070818C10FC9070FE071461A
:101170006118B2E7F10740080843711071444A0052
:101180000CD001235B059A42A7D2C90FC9070020E2
:10119000A3E74905490D26D1002001E00028F4D13C
:1011A00000219AE7284D6600002801D0012100E0C7
:1011B000002171185F00002A01D0012600E00026FE
:1011C000BE19224FA94210D8AE420ED8B14208D063
:1011D00001256D05E94206D01946A8024140104696
:1011E0007BE79C4201D0214677E70020394674E72F
:1011F00010B50C465C4005D50124E4076340FFF7B9
:101200000CFF10BDFFF778FE10BD30B40C465C40FB
:1012100004D50124E407634030BC6DE630BCFCE635
:1012200070B50124E40761400D465D4002D4FFF72C
:1012300063FE70BD6340FFF7F0FE70BDFF07000066
:101240000000F0FF0000F07F0000E0FF0000F87FEA
:101250000346CA02400D10B510430A1504D00124FC
:10126000E4072043002A05DB0A4CA21A04D4D0402C
:10127000FF2A00DD002010BD4A00002B01D0012014
:1012800000E00020101801225205D042F2D8C81701
:10129000C04310BD1E0400000121C90501234118EF
:1012A00042001B06D3185B0E0AD0C1100722D206DB
:1012B000891840075242D14201D55200891870471F
:1012C000090208D50146002A03D0C10FC907002032
:1012D000704710467047420202D000200249704712
:1012E000072109050143F4E70000F87FF0B5FF2569
:1012F0002D04C609C209FF2704462E400137CB0939
:101300003E4348402A402B400746002A6BD0002B22
:1013100069D0AA4267D0AB4265D0002800DA3246D5
:101320000125ED0529432C4309022002090AD21A9E
:101330004B0C7F24E31A434C000A7C44E35C7D247D
:101340002404121914145B00A218884201D3521C01
:1013500000E0400049420C465C4324115C43DB0141
:101360006415E318040A5C43C502200D0C4644438F
:101370006419250A5D432303EC0C0D466543000305
:101380000019EB184C42A34201D35B18401CD40552
:101390002018002B07D05B00C91804D3401C00297B
:1013A00001D1400840003F2189048A4209D3002A24
:1013B00008DC1106090F04D0032149074018C00FAB
:1013C000C007F0BD01224100120689187F22520693
:1013D0009142F6D205214907C84201D59010F0BDCF
:1013E000FF20C005F0BD002F00DA32461648AA42A1
:1013F00007D2AB4205D21902090E17D0F80FC00769
:10140000F0BDFF2563002D06AB42F9D84900A94283
:10141000F6D8AB4201D1A942F2D0A94201D10021B4
:1014200001E061004908D0050843F0BD1102090E32
:10143000FBD0FF200243D005F0BD0A46014610460E
:1014400054E70000FF0400000000C07F0102C21545
:1014500004D00123DB071943002A0ADB9E239A1AD2
:1014600002D40846D0407047FF2241001206914244
:1014700001D900207047C017C04370471F22030CDA
:1014800002D10F2200041CD0030E01D10002083A41
:10149000030F01D10001121F830F01D18000921EA2
:1014A000002801DB4000521ED205511802125118CB
:1014B0001922904004D3491C002801D14908490051
:1014C00008467047C10FC90700D040420122920769
:1014D0001143D3E701218907D0E7000010B5FF22AF
:1014E000C30D134009D05A4007D0914205DA5C423F
:1014F000A14202DDC905081810BDC40FE407002B86
:1015000006D0002A06D0002902DBFF20C0050443D4
:10151000204610BD4102FCD0004810BD0000C07F35
:10152000FFB504460D4681B024300090216888063E
:1015300004D51022E0699143216000E00120A84217
:1015400001DD471B00E000270498A1697A191018F3
:10155000081AA0612078C00602D42046FFF72CFBB1
:10156000002608E003986268A168805D9047206AC1
:10157000401C761C206204988642F3DB2078C0066B
:101580000AD52046FFF718FB06E06268A168302004
:101590009047206A401C206238467F1E0028F4DCF9
:1015A00007E000986268A168405D9047206A401C8F
:1015B000206228466D1E0028F3DC2046FFF712FB50
:1015C0002078000602D5022005B0F0BD0120FBE71F
:1015D000084B70B50D467B4400F013F804462846CE
:1015E000FFF7CEFA002802D00020C04370BD20468D
:1015F00070BD000087F5FFFF01694A1C0261087891
:10160000704700B58FB00291002105910549019303
:1016100079440391114604906846FFF721FB0FB00F
:1016200000BD0000E5FFFFFF754600F025F8AE465F
:10163000050069465346C008C000854618B020B56D
:10164000FEF796FD60BC00274908B6460026C0C5D7
:10165000C0C5C0C5C0C5C0C5C0C5C0C5C0C5403D6A
:1016600049008D46704710B50446C046C046204626
:10167000FEF76DFD10BD0000004870479800002087
:1016800030380A2801D2012070470020704700003E
:1016900070B501250400ED074C4020D4441A01D256
:1016A000001B0919C60D4B00F2B2FF2A29D01B0EF0
:1016B0002CD000020C02D31A2C43DC40284305191D
:1016C00010D2280A02D3401C6D0611D0761EF605F2
:1016D0008019FF2A00DA70BDC00DC00570BD6940D9
:1016E00000F02EF801200543C541521C761CE8E7A6
:1016F00064089C40C90161408900E7D10124A043EE
:10170000E4E71B0E440200D0034870BD002AFCD160
:10171000C00FC00770BD00BF0000C07F70B50125BD
:10172000ED07684004004C4002D5694000F008F81D
:10173000FFF7B4FF70B501250400ED074C4022D43B
:10174000441A02D26C40001B0919C60D4B00F2B2BC
:10175000FF2A4BD01B0E50D000020C02D31A2C4390
:10176000DC40A843051B05D5AD0019D36D08761ED6
:10177000521E37D0F605280A01D2801970BD70417B
:101780006D0603D070BD6940FFF788FF9C400902D9
:101790006140490001D0401E70BD0124A04370BDCE
:1017A0006D081DD001202B0C01D12D0410302B0E03
:1017B00001D12D0208302B0F01D12D01001DAB0FDF
:1017C00001D1AD00801CEB0F01D16D00401C6D00FC
:1017D000361A121A680AF5054019012A02DB70BD93
:1017E000002070BDC036300AC00770BD1B0E440219
:1017F00001D1FF2B00D1024870BD002AF0D070BD8E
:101800000000C07F30313233343536373839414209
:101810004344454640305800303132333435363752
:1018200038396162636465664030780004000008FE
:10183000000000000000000200010000108182830F
:101840008485868788898B8C8D8E8F9192939596CF
:1018500097999A9C9D9FA0A2A3A5A7A8AAACAEB059
:10186000B2B3B5B7B9BCBEC0C2C5C7C9CCCED1D45E
:10187000D7D9DCDFE2E6E9ECF0F3F7FAFE0000008E
:10188000A01800000000002030000000EC00000064
:10189000D018000030000020C80800000801000037
:1018A0000000000000000000000000000000000038
:1018B0000000000001020304050607080000000004
:1018C0000000000000000000000000000000000018
:04000005000000A94E
:00000001FF
